:020000040000fa
:080000000002040000000000f2
:020000040000fa
:100008009402000094020000940200009402000090
:100018009402000094020000940200009402000080
:100028009402000094020000940200009402000070
:100038009402000094020000940200009402000060
:020000040000fa
:020000040000fa
:100400002f8120000ebf20000e0188000000000098
:1004100000012000200288000c000700a0912000ad
:100420000100200011000700000020000000e00093
:1004300002003200000002000000000092070200eb
:10044000000000000040da000000fe004440a90067
:10045000000020000000e000030032000000200047
:10046000a00188004440a800000006009101880017
:10047000800078000000eb0015003700e2804000ab
:1004800032a0b4009101ba00e280400032a0b40072
:100490009102ba00e280400032a0b4000002eb00fa
:1004a000472bde00f507b200602ce10004003a00a3
:1004b0000059eb008301e900fdff3e000400370016
:1004c0006128e100010032000082eb000400070017
:1004d0001101ba000200e000e8ff3a000000060047
:1004e0003159ba008301e9000c0032002159ba00e9
:1004f0008301e900080032000400e00003003a0034
:10050000e280400032a0b400f5ff370011d9ba00f4
:100510008301e900faff3a008100e800e180400031
:1005200032a0b400000006000040da000000fe0027
:020000040000fa
:100530000000fa00c882a900c042a900c442a80075
:10054000cde2a800e244a900c842a800dc020700ee
:100550000080fa00000006000000fa0021c0b3008d
:1005600050c0b3000d02070061c2b30060c0b30009
:100570000a02070001c1b30010c1b300070207005f
:100580000042eb000440780010e8b700f1c4b3006b
:100590000040eb0001020700c442a8000080fa00fe
:1005a000000006000600fa0021c0b30050c0b300ee
:1005b000fa01070061c2b30060c0b300f701070091
:1005c000f1c3b30020c0b300f401070074ceb30040
:1005d000444798004e429000344798003e429000b5
:1005e000244798002e429000144798001e42900025
:1005f000044f78000041eb0051c0b3000e007800ba
:10060000f700070024ccb300444798004e42900006
:10061000344798003e429000244798002e429000b4
:10062000144798001e429000044f780012c0b30097
:1006300051c0b3000e007800e900070034ccb300cd
:10064000044f780022c0b30011c0b3000e00780040
:10065000e300070044ccb300044f780032c0b3007d
:1006600011c0b3000e007800dd00070054ccb300c9
:10067000044f780042c0b30011c0b3000e007800f0
:10068000d700070064ccb300044f780052c0b30019
:1006900011c0b3000e007800d100070001c1b30003
:1006a00010c1b300bd01070001c1b30020c1b300f8
:1006b000ba01070001c1b30030c1b300b7010700a0
:1006c00001c1b30040c1b300b401070001c1b300d0
:1006d00050c1b300b101070001c1b30060c1b30054
:1006e000ae0107000042eb000440780010e8b700bc
:1006f000f1c4b3000040eb00a8010700c442a80009
:100700000080fa00000006000800fa006047980028
:1007100021c0b30050c0b300a001070061c2b30004
:1007200060c0b3009d010700c1c4b3000040eb00ee
:100730009a010700f1c2b30040c0b300970107005f
:100740006e4290000482fb00cfa2de005600200023
:1007500007002000860f5200878f5a0061003e007c
:100760000460010005003700130037002100370046
:100770002f0037003d0037004b00370074ceb30028
:10078000444798004e429000344798003e42900003
:10079000244798002e429000144798001e42900073
:1007a000044f78000e007800f30007000e00780078
:1007b000e70007004b00370024ccb3004447980003
:1007c0004e429000344798003e42900024479800e3
:1007d0002e429000144798001e429000044f78006b
:1007e0000e007800e40007000e007800d800070033
:1007f0003c00370024ccb300444798004e429000a0
:10080000344798003e429000244798002e429000c2
:100810001447980034ccb300044f78000e007800e1
:10082000d50007000e007800c90007002d00370032
:1008300024ccb300444798004e42900034479800bf
:100840003e429000244798002e42900014479800a2
:1008500044ccb300044f78000e007800c6000700b7
:100860000e007800ba0007001e00370024ccb30049
:10087000444798004e429000344798003e42900012
:10088000244798002e4290001447980054ccb3009f
:10089000044f78000e007800b70007000e007800c3
:1008a000ab0007000f00370024ccb300444798008a
:1008b0004e429000344798003e42900024479800f2
:1008c0002e4290001447980064ccb300044f780087
:1008d0000e007800a80007000e0078009c000700ba
:1008e000000000000042eb000440780010e8b70070
:1008f000e1c4b3000040eb00280107000080fa00cb
:10090000000006000400fa00000f7800214798005c
:100910002e4190009e00780000c1b3004001070006
:100920000080fa00000006000200fa0012c0b300c6
:100930008e0078000040eb00270107001e4278007f
:100940000482fb0061026200e00f52000a003200e4
:100950009e427800e4cfb30004c26200044f7800e6
:1009600012c0b3008e0078000040eb002c0107009d
:10097000c442a90001003700000000000080fa0016
:10098000000006000200fa0012c0b3008e007800da
:100990000040eb00100107001e4278000482fb00bb
:1009a00062026200e00f52000a0032009e427800ac
:1009b000d4cfb30004c26200044f780012c0b30069
:1009c0008e0078000040eb0015010700c442a9002a
:1009d00001003700000000000080fa00000006005f
:1009e0000400fa00000f7800214798003247980071
:1009f0003e429000e54f520007003e003e4290000c
:100a00006a4242002e4190009e0078000440780027
:100a10000301070001003700000000000080fa0019
:100a2000000006000400fa00000f7800214798003b
:100a3000324798002e429000e54f520007003e00da
:100a40002e4290006a4242003e4190009e00780093
:100a500004407800e00007000100370000000000bb
:100a60000080fa00000006000200fa00004f780043
:100a7000114798001e429000e54f52000b003e00c7
:100a80009e42780004c2b30084cf520009003e00a9
:100a90001e4290007142420012c0b3008e007800e6
:100aa00004407800de00070003003700000000006b
:100ab00001003700000000000080fa00000006007e
:100ac0000400fa00204798002e429000e54f5200a3
:100ad000020036000042eb00070037002e42900073
:100ae0007142420012c0b3008e00780004407800ca
:100af000b90007001e427800044078000080fa0028
:100b0000000006000000fa007100070000427800b3
:100b10000440780004000700004278000440780098
:100b20000080fa00000006000200fa00004f780082
:100b30009e4278000582fb006e0262000482d100b2
:100b400004427800044078000080fa0000000600ab
:100b50000200fa00000f7800c442a90052c0b3009e
:100b60009e007800a0c0b300ad000700c442a800fa
:100b70000080fa00000006000200fa00000f780072
:100b800052c0b3009e00780000c1b300a40007006b
:100b90000080fa00000006000200fa000481200034
:100ba00014427800e04f5200020032000042eb0095
:100bb00008003700cde2a90000c0eb008d0107005e
:100bc00000427800044f7800cde2a80005c4b300cd
:100bd0001ec26200044078000080fa000000060097
:100be0000200fa0012c0b3008e00780070c1b3009a
:100bf000790007001e4278007042620004407800cd
:100c00000080fa00000006000200fa0012c0b300e3
:100c10008e00780070c1b3006f0007001e4278009c
:100c200061426200044078000080fa000000060083
:100c30000200fa0012c0b3008e00780050c0b3006a
:100c4000650007001e427800044078000080fa002a
:100c5000000006000200fa0012c0b3008e00780007
:100c600060c0b3005c0007001e42780004407800ba
:100c70000080fa00000006000200fa0012c0b30073
:100c80008e00780080c0b300530007001e42780039
:100c90000482fb004422de00044278000440780015
:100ca0000080fa00000006000200fa0012c0b30043
:100cb0008e00780080c0b300470007001e42780015
:100cc0006f426200044078000080fa0000000600d5
:100cd0000000fa0000c0eb0011000700004278009d
:100ce000044078000080fa00000006000200fa00cc
:100cf00000c0eb000a00070000427800044f7800b3
:100d00009e4278000582fb006e0262000482d100e0
:100d100004427800044078000080fa0000000600d9
:100d20000400fa0020479800cde2a9002e40900070
:100d30003001070000427800044f7800cde2a8009f
:100d40001e427800044078000080fa00000006008f
:100d50000400fa0010079800cde2a90010c6b30005
:100d60002401070000427800044f780002012000af
:100d70009e0090001e009000ff000700cde2a8003a
:100d800001c4b30070c0b300040007001e42780025
:100d9000044078000080fa00000006000200fa001b
:100da000004f780011479800cde2a9001e4278005c
:100db000ff42620004c2b30004c272000440780023
:100dc0000c0107001e4090000a010700cde2a800b8
:100dd0000080fa00000006000600fa00004f7800cc
:100de0001107980042479800cde2a9009e42780082
:100df0007fc2620004407800fe0007004e4290006f
:100e00000482fb00040178009e0090001e00900008
:100e1000d9000700cde2a8000080fa00000006001b
:100e20000600fa00004f780011079800424798002a
:100e3000cde2a9001e427800ff42620004c2b30066
:100e400004c2720004407800ea0007004e4290009d
:100e50000482fb00840078001e009000ab000700b5
:100e6000cde2a8000080fa00000006000400fa00ad
:100e7000000f780021479800000000000481200046
:100e800014427800e04f5200fcff3a00c442a9002f
:100e900014c0b3000440780010e8b700e1c4b30008
:100ea0000040eb00bdff0700cde2a90010ceb3006b
:100eb000d0000700cde2a800cde2a90000cab3002f
:100ec000cc0007002e4290000482fb0084007800d2
:100ed0001e0078008d000700cde2a800c442a800e3
:100ee0005000200003000700c442a9000080fa005f
:100ef000000006000200fa00000f78000100370031
:100f00001e0fe9001e027800e00f5200fcff3a00bd
:100f10000080fa00000006000000fa000080fa00dd
:100f2000000006001600fa00100f9800210f98002c
:100f3000c802a900c822a900c842a900c862a90025
:100f4000c882a900c8a2a900c8c2a900c8e2a90015
:100f5000c902a900c922a900c942a800c962a90002
:100f6000c982a900c9a2a900c9c2a800c9e2a900f2
:100f7000c0e2a800c062a900c002a900c022a90066
:100f8000c042a900c082a900c0c2a900cb02a8002b
:100f9000c242a8000042eb00044f78009680a800ef
:100fa000740580000400a0000410a0000420a0002c
:100fb000740588005efd070050002000cdff07008b
:100fc00065fd070000000000f3fe07000042780006
:100fd000e04f5200fcff3200cb02a8000e82e80076
:100fe000040078005aff0700004278001447980078
:100ff0002e429000044f780000000000f2ff3700fe
:101000000200fa003404800070026200e00f520017
:1010100029003200cde2a90000c0eb0075000700f6
:1010200000427800044f7800cde2a8001e4078000e
:101030008082fb000402200004826200e00f520064
:101040000600320001c2b30070c0b30053ff0700b6
:101050000042eb000440780010e8b7009e427800a0
:101060000582fb0070026200e00f520007003200b0
:1010700001c1b30070c0b30048ff0700c442a8001c
:10108000500020009bff0700c442a9001e407800ca
:101090000082fb006102620004427800e04f5200cf
:1010a00004003200cde2a90010ceb30051000700c9
:1010b000cde2a8008680a9000080fa0000000600aa
:1010c0000000fa000002eb000410880002a2a80051
:1010d0009600a9000282a900141080000400a1005b
:1010e0000410a0000420a1000430a1001410880006
:1010f000fd02a900fd22a90008c2a80008e2a8007c
:1011000002c2a9000080fa00000006000600fa00f2
:101110001007980021079800120037001e02900067
:10112000144278000482fb000410880000000000d4
:101130003404800061026200e00f5200fcff3200c4
:101140008600a90004108000044f78002e02900051
:101150000402e900240798001e0290000402e8003f
:10116000140798002e029000e00f5200ebff3a00a7
:101170000080fa00000006000600fa00000f780068
:101180001107980022079800150037001e0278000a
:10119000144278000482fb00041088000000000064
:1011a0003404800061026200e00f5200fcff320054
:1011b0008600a90004108000044278009e0290007e
:1011c000844a78002e0290000402e9002407980067
:1011d0001e0fe8001e0290000402e80014079800a9
:1011e0002e029000e00f5200e8ff3a000080fa0063
:1011f000000006000200fa00004f78009e427800ce
:101200000582fb0004108800000000003404800008
:1012100061026200e00f5200fcff32008600a9006c
:101220000410800004427800044078000080fa0036
:0412300000000600b4
:020000040000fa
:10123400000800001000000000000000100800007a
:0c1244000200000000000000000000009c
:020000040000fa
:0200000401f009
:04000000ffff0000fe
:020000040000fa
:0200000401f009
:04000800ffff0000f6
:020000040000fa
:0200000401f009
:04000c0079ff000078
:020000040000fa
:0200000401f009
:0400100037ff0000b6
:020000040000fa
:0200000401f009
:040014005fff00008a
:020000040000fa
:0200000401f009
:04001800ffff0000e6
:020000040000fa
:0200000401f009
:04001c00ffff0000e2
:00000001FF
