:020000040000fa
:080000000002040000000000f2
:020000040000fa
:100008009402000094020000940200009402000090
:100018009402000094020000940200009402000080
:10002800fe08000094020000940200009402000000
:100038009402000094020000940200009402000060
:100048009402000094020000940200009402000050
:100058009402000094020000940200009402000040
:100068009402000094020000940200009402000030
:100078009402000094020000940200009402000020
:100088009402000094020000940200009402000010
:100098009402000094020000940200009402000000
:1000a80094020000940200009402000094020000f0
:1000b80094020000940200009402000094020000e0
:1000c80094020000940200009402000094020000d0
:1000d80094020000940200009402000094020000c0
:1000e80094020000940200009402000094020000b0
:1000f80094020000940200009402000094020000a0
:10010800940200009402000094020000940200008f
:10011800940200009402000094020000940200007f
:10012800940200009402000094020000940200006f
:10013800940200009402000094020000940200005f
:10014800940200009402000094020000940200004f
:10015800940200009402000094020000940200003f
:10016800940200009402000094020000940200002f
:10017800940200009402000094020000940200001f
:10018800940200009402000094020000940200000f
:1001980094020000940200009402000094020000ff
:1001a80094020000940200009402000094020000ef
:1001b80094020000940200009402000094020000df
:1001c80094020000940200009402000094020000cf
:1001d80094020000940200009402000094020000bf
:1001e80094020000940200009402000094020000af
:0801f8009402000094020000d3
:020000040000fa
:10020800940200009402000094020000940200008e
:10021800940200009402000094020000940200007e
:10022800fe080000940200009402000094020000fe
:10023800940200009402000094020000940200005e
:10024800940200009402000094020000940200004e
:10025800940200009402000094020000940200003e
:10026800940200009402000094020000940200002e
:10027800940200009402000094020000940200001e
:10028800940200009402000094020000940200000e
:1002980094020000940200009402000094020000fe
:1002a80094020000940200009402000094020000ee
:1002b80094020000940200009402000094020000de
:1002c80094020000940200009402000094020000ce
:1002d80094020000940200009402000094020000be
:1002e80094020000940200009402000094020000ae
:1002f800940200009402000094020000940200009e
:10030800940200009402000094020000940200008d
:10031800940200009402000094020000940200007d
:10032800940200009402000094020000940200006d
:10033800940200009402000094020000940200005d
:10034800940200009402000094020000940200004d
:10035800940200009402000094020000940200003d
:10036800940200009402000094020000940200002d
:10037800940200009402000094020000940200001d
:10038800940200009402000094020000940200000d
:1003980094020000940200009402000094020000fd
:1003a80094020000940200009402000094020000ed
:1003b80094020000940200009402000094020000dd
:1003c80094020000940200009402000094020000cd
:1003d80094020000940200009402000094020000bd
:1003e80094020000940200009402000094020000ad
:0803f8009402000094020000d1
:020000040000fa
:100400004f8020000ebf20000e0188000000000079
:1004100000012000200288000c00070080992000c5
:100420000100200011000700000020000000e00093
:10043000020032000000020000000000b8080200c4
:10044000000000000040da000000fe004440a90067
:10045000600020000000e0000300320000002000e7
:10046000a00188004440a800000006009101880017
:10047000800078000000eb0015003700e2804000ab
:1004800032a0b4009101ba00e280400032a0b40072
:100490009102ba00e280400032a0b4000002eb00fa
:1004a000472bde00f507b200602ce10004003a00a3
:1004b0000059eb008301e900fdff3e000400370016
:1004c0006128e100010032000082eb000400070017
:1004d0001101ba000200e000e8ff3a000000060047
:1004e0003159ba008301e9000c0032002159ba00e9
:1004f0008301e900080032000400e00003003a0034
:10050000e280400032a0b400f5ff370011d9ba00f4
:100510008301e900faff3a008100e800e180400031
:1005200032a0b400000006000040da000000fe0027
:100530000002780002003700315a78000201e90019
:0c054000e00f5100fcff3a000000060034
:020000040000fa
:0c054c00486100006c6c00006f000000b3
:020000040000fa
:100558000000fa00c042a900c9e2a900c0c2a80070
:10056800c442a900cde2a8009400a800a400a800f5
:100578008200a8000080fa00000006000000fa00cf
:1005880021c0b30050c0b3000f02070061c2b3001e
:1005980060c0b3000c02070001c1b30010c1b30072
:1005a800090207000042eb000440780000e8b700a9
:1005b800f1c4b3000040eb0003020700c442a800e6
:1005c8000080fa00000006000600fa0021c0b3000f
:1005d80050c0b300fc01070061c2b30060c0b300a3
:1005e800f9010700f1c3b30020c0b300f60107000a
:1005f80074ceb300444798004e42900034479800a8
:100608003e429000244798002e42900014479800dc
:100618001e429000044f78000041eb0051c0b30027
:100628000e007800f700070024ccb3004447980078
:100638004e429000344798003e429000244798006c
:100648002e429000144798001e429000044f7800f4
:1006580012c0b30051c0b3000e007800e9000700d3
:1006680034ccb300044f780022c0b30011c0b300eb
:100678000e007800e300070044ccb300044f780074
:1006880032c0b30011c0b3000e007800dd000700cf
:1006980054ccb300044f780042c0b30011c0b3007b
:1006a8000e007800d700070064ccb300044f780030
:1006b80052c0b30011c0b3000e007800d10007008b
:1006c80001c1b30010c1b300bf01070001c1b300ed
:1006d80020c1b300bc01070001c1b30030c1b300a1
:1006e800b901070001c1b30040c1b300b60107005a
:1006f80001c1b30050c1b300b301070001c1b30089
:1007080060c1b300b00107000042eb00044078006c
:1007180000e8b700f1c4b3000040eb00aa010700ed
:10072800c442a8000080fa00000006000800fa0091
:100738006047980021c0b30050c0b300a201070071
:1007480061c2b30060c0b3009f010700c1c4b30019
:100758000040eb009c010700f1c2b30040c0b300a9
:10076800990107006e4290000482fb00cfa2de00d0
:100778005600200007002000860f5200878f5a007d
:1007880061003e00046001000500370013003700d7
:10079800210037002f0037003d0037004b0037009d
:1007a80074ceb300444798004e42900034479800f6
:1007b8003e429000244798002e429000144798002b
:1007c8001e429000044f78000e007800f3000700e6
:1007d8000e007800e70007004b00370024ccb30078
:1007e800444798004e429000344798003e4290009b
:1007f800244798002e429000144798001e4290000b
:10080800044f78000e007800e40007000e0078001e
:10081800d80007003c00370024ccb30044479800b8
:100828004e429000344798003e429000244798007a
:100838002e4290001447980034ccb300044f78003f
:100848000e007800d50007000e007800c9000700e8
:100858002d00370024ccb300444798004e42900046
:10086800344798003e429000244798002e4290005a
:100878001447980044ccb300044f78000e00780069
:10088800c60007000e007800ba0007001e003700f7
:1008980024ccb300444798004e4290003447980057
:1008a8003e429000244798002e429000144798003a
:1008b80054ccb300044f78000e007800b70007004e
:1008c8000e007800ab0007000f00370024ccb300ff
:1008d800444798004e429000344798003e429000aa
:1008e800244798002e4290001447980064ccb30027
:1008f800044f78000e007800a80007000e0078006a
:100908009c000700000000000042eb000440780053
:1009180000e8b700e1c4b3000040eb002a0107007b
:100928000080fa00000006000400fa00000f7800ba
:10093800214798002e4190009e00780000c1b30026
:10094800460107000080fa00000006000200fa00d5
:1009580012c0b3008e0078000040eb002c010700a5
:100968001e4278000482fb0061026200e00f520020
:100978000a0032009e427800e4cfb30004c262004d
:10098800044f780012c0b3008e0078000040eb00de
:1009980032010700c442a90001003700000000002e
:1009a8000080fa00000006000200fa0012c0b3003e
:1009b8008e0078000040eb00150107001e42780009
:1009c8000482fb0062026200e00f52000a0032005b
:1009d8009e427800d4cfb30004c26200044f78006e
:1009e80012c0b3008e0078000040eb001b01070026
:1009f800c442a90001003700000000000080fa008e
:100a0800000006000400fa00000f78002147980053
:100a1800324798003e429000e54f520007003e00e2
:100a28003e4290006a4242002e4190009e007800ab
:100a380004407800090107000100370000000000a9
:100a48000080fa00000006000400fa00000f780099
:100a580021479800324798002e429000e54f5200f7
:100a680007003e002e4290006a4242003e4190003c
:100a78009e00780004407800e50007000100370078
:100a8800000000000080fa00000006000200fa00e2
:100a9800004f7800114798001e429000e54f520021
:100aa8000b003e009e42780004c2b30084cf52007f
:100ab80009003e001e4290007142420012c0b3007d
:100ac8008e00780004407800e40007000300370037
:100ad8000000000001003700000000000080fa005c
:100ae800000006000400fa00204798002e429000fb
:100af800e54f5200020036000042eb0007003700c5
:100b08002e4290007142420012c0b3008e0078005d
:100b180004407800be0007001e42780004407800b8
:100b28000080fa00000006000000fa0071000700cb
:100b38000042780004407800040007000042780072
:100b4800044078000080fa00000006000200fa0065
:100b5800004f78009e4278000582fb006e0262001a
:100b68000482d10004427800044078000080fa0032
:100b7800000006000200fa00000f7800c442a90035
:100b880052c0b3009e007800a0c0b300b3000700b5
:100b9800c442a8000080fa00000006000200fa0023
:100ba800000f780052c0b3009e00780000c1b30067
:100bb800aa0007000080fa00000006000200fa0000
:100bc8000480200014427800e04f520002003200f6
:100bd8000042eb0008003700cde2a900f00f20002a
:100be8004801070000027800044f7800cde2a80011
:100bf80005c4b3001ec26200044078000080fa00f9
:100c0800000006000200fa0012c0b3008e0078004f
:100c180070c1b3007e0007001e4278007042620077
:100c2800044078000080fa00000006000200fa0084
:100c380012c0b3008e00780070c1b30074000700c2
:100c48001e42780061426200044078000080fa0089
:100c5800000006000200fa0012c0b3008e007800ff
:100c680050c0b3006a0007001e42780004407800b4
:100c78000080fa00000006000200fa0012c0b3006b
:100c88008e00780060c0b300610007001e42780043
:100c9800044078000080fa00000006000200fa0014
:100ca80012c0b3008e00780080c0b300580007005f
:100cb8001e4278000482fb004422de0004427800d1
:100cc800044078000080fa00000006000200fa00e4
:100cd80012c0b3008e00780080c0b3004c0007003b
:100ce8001e4278006f426200044078000080fa00db
:100cf800000006000000fa0000c0eb001100070029
:100d080000427800044078000080fa0000000600e5
:100d18000200fa0000c0eb000a0007000042780059
:100d2800044f78009e4278000582fb006e02620044
:100d38000482d10004427800044078000080fa0060
:100d4800000006000400fa0020479800cde2a90040
:100d58002e4290000482fb0004007800e90007009e
:100d680000027800044f7800cde2a8001e42780007
:100d7800044078000080fa00000006000400fa0031
:100d880010079800cde2a90010062000dd0007003a
:100d980000027800044f7800020120009e009000b5
:100da8001e009000b8000700cde2a80001c4b300ff
:100db80070c0b300040007001e42780004407800a9
:100dc8000080fa00000006000200fa00004f7800d8
:100dd80011479800cde2a9001e427800ff42620048
:100de80004c2b30004c272000482fb00040078004d
:100df800c40007001e4290000482fb000400780033
:100e0800c0000700cde2a8000080fa00000006003c
:100e18000600fa00004f7800110798004247980032
:100e2800cde2a9009e4278000582fb007f026200a5
:100e380004007800b30007004e4290000482fb00d3
:100e4800040178009e0090001e0090008e000700ac
:100e5800cde2a8000080fa00000006000600fa00b3
:100e6800004f78001107980042479800cde2a9008a
:100e78001e427800ff42620004c2b30004c272003e
:100e88000482fb00040078009e0007004e42900098
:100e98000482fb00840078001e0090005f000700b9
:100ea800cde2a8000080fa00000006000400fa0065
:100eb800000f7800214798000000000004802000ff
:100ec80014427800e04f5200fcff3a00c442a900e7
:100ed80014c0b3000440780000e8b700e1c4b300d0
:100ee8000040eb00b8ff0700cde2a900100e20007b
:100ef80084000700cde2a800cde2a900000a200086
:100f0800800007002e4290000482fb0084007800d5
:100f18001e00780041000700cde2a800c442a800e6
:100f28002003200021000700c442a9000080fa0025
:100f3800000006000000fa000002eb000427880009
:100f48000002eb0014278800c802a900c822a900e3
:100f5800c842a900c862a900c882a900c8a2a900fd
:100f6800c8c2a900c8e2a800c902a900c922a900ec
:100f7800c942a800c962a900c982a900c9a2a900da
:100f8800c9c2a900c9e2a900c0e2a800c062a900bc
:100f9800c002a900c022a900c042a900c082a900bd
:100fa800c0c2a9000080fa00000006000200fa0092
:100fb800000f7800010037001e0fe9001e027800bc
:100fc800e00f5200fcff3a000080fa000000060023
:100fd8000000fa000002eb000410880002a2a8003a
:100fe8009600a9000282a900141080000400a10044
:100ff8000410a0000420a1000430a10014108800ef
:10100800fd02a900fd22a90008c2a80008e2a80064
:1010180002c2a9000080fa00000006000600fa00db
:101028001007980021079800120037001e02900050
:10103800144278000482fb000410880000000000bd
:101048003404800061026200e00f5200fcff3200ad
:101058008600a90004108000044f78002e0290003a
:101068000402e900240798001e0290000402e80028
:10107800140798002e029000e00f5200ebff3a0090
:101088000080fa00000006000600fa00000f780051
:101098001107980022079800150037001e027800f3
:1010a800144278000482fb0004108800000000004d
:1010b8003404800061026200e00f5200fcff32003d
:1010c8008600a90004108000044278009e02900067
:1010d800844a78002e0290000402e9002407980050
:1010e8001e0fe8001e0290000402e8001407980092
:1010f8002e029000e00f5200e8ff3a000080fa004c
:10110800000006000200fa00004f78009e427800b6
:101118000582fb00041088000000000034048000f1
:1011280061026200e00f5200fcff32008600a90055
:101138000410800004427800044078000080fa001f
:10114800000006000000fa0030e32400c10020007f
:1011580067000700cbe2a900cbe2a80087a0a9009e
:101168000080fa00000006001600fa00100f980030
:10117800210f9800cb22a9000042eb00044f780011
:101188006cff070092ff0700f1fc07002003200016
:1011980086ff07000040eb0064fd0700ca62a90053
:1011a8000e02e80062002000612a2800040078008e
:1011b800ddfc0700200320007cff0700010037004a
:1011c8000000000015168000040820000482620058
:1011d800e00f5200faff32000e02e80001c1b3002e
:1011e8000400780031ff0700500020006fff07005f
:1011f800f4ff37003600f800809fbe00829fbe00d3
:10120800849fbe00869fbe003400f80000002000c6
:10121800a00188000200fa00ca62a8002404800025
:1012280061026200e00f520029003200cde2a900fd
:1012380000c0eb00b3ff070000427800044f7800bd
:10124800cde2a8001e4078008082fb000402200046
:1012580004826200e00f52000600320001c2b300af
:1012680070c0b300d8fe07000042eb0004407800cd
:1012780000e8b7009e4278000582fb007002620019
:10128800e00f52000700320001c1b30070c0b30084
:10129800cdfe0700c442a8005000200043ff07000d
:1012a800c442a9001e4078000082fb00610262006f
:1012b80004427800e04f520004003200cde2a90059
:1012c80010ceb3008fff0700cde2a8008400a9006c
:1012d8000080fa003400f9004f03be004f02be0040
:1012e8004f01be004f00be003600f9000040060066
:020000040000fa
:1012f800f03fb1000180b10006003500ee0309009f
:1013080000000000403fb1000180b100fbff3d003c
:101318001000b000203fb000020035000080090036
:081328000000000000000600b7
:020000040000fa
:101330000008000002000000000000000208000099
:101340000200000002000000102700000000000062
:00000001FF
